:100000000C9463000C9480000C9480000C9480008D
:100010000C9480000C9480000C9480000C94800060
:100020000C9480000C9480000C9480000C94800050
:100030000C9480000C9480000C9480000C94800040
:100040000C9480000C9480000C9480000C94800030
:100050000C9480004143434553532044454E494549
:100060004400696E76616C696420757365722070F6
:100070006173730057454C434F4D20757365720093
:100080007573657220706173733F3F00456E7465D0
:10009000722075736572204944006E756D626572D9
:1000A000206F662075736572733F0057454C434F50
:1000B0004D2041444D494E0041444D494E20504150
:1000C00053533F21000011241FBECFE5D8E0DEBF0F
:1000D000CDBF10E0A0E6B0E0E2E6FCE002C0059093
:1000E0000D92AE36B107D9F720E0AEE6B0E001C020
:1000F0001D92A339B207E1F70E94E2010C942F068A
:100100000C940000A898A99AA498A598A698A798D6
:10011000AA9A00C09C9B15C080E19D9980629E991F
:1001200080649F998068AA9800C0AA9A00C09C9990
:1001300081609D9982609E9984609F998860AA9849
:10014000089580E0EACF0E94820087FDFCCF88E01E
:1001500090E00197F1F70C948200AA9A00C0AA9847
:100160000895CF93C82F662341F1A89AA998A49A1D
:10017000A59AA69AA79AAF98AE98AD98AC98C7FDE5
:10018000AF9AC6FDAE9AC5FDAD9AC4FDAC9A0E9469
:10019000AD00AF98AE98AD98AC98C3FDAF9AC2FDD4
:1001A000AE9AC1FDAD9AC0FDAC9A0E94AD00AC9A6A
:1001B000AD9AAE9AAF9ACF910895A898D7CFCF9322
:1001C000C82F0E94A30060E08C2FCF910C94B10047
:1001D000CF93C82F0E94A300CA3049F4803428F07E
:1001E00080E08058CF910C94DF0080E4FACF61E08A
:1001F0008C2FCF910C94B100CF93DF93EC01FE01D3
:1002000084912196811103C0DF91CF9108950E94BE
:10021000E800F5CF81E00C94DF008BB38F608BBBDF
:10022000D898CC990BC02FEF82E597E02150804001
:100230009040E1F700C0000087E00895CD990BC021
:100240002FEF82E597E0215080409040E1F700C019
:10025000000088E00895CE9BF3CFCF990BC02FEF1D
:1002600082E597E0215080409040E1F700C0000017
:1002700081E408958BB38F608BBBD998CC990BC068
:100280002FEF82E597E0215080409040E1F700C0D9
:10029000000084E00895CD990BC02FEF82E597E030
:1002A000215080409040E1F700C0000085E00895B3
:1002B000CE990BC02FEF82E597E02150804090400F
:1002C000E1F700C0000086E00895CF990BC02FEF42
:1002D00082E597E0215080409040E1F700C00000A7
:1002E00082E408958BB38F608BBBDA98CC990BC0F6
:1002F0002FEF82E597E0215080409040E1F700C069
:10030000000081E00895CD990BC02FEF82E597E0C2
:10031000215080409040E1F700C0000082E0089545
:10032000CE990BC02FEF82E597E02150804090409E
:10033000E1F700C0000083E00895CF990BC02FEFD4
:1003400082E597E0215080409040E1F700C0000036
:1003500083E408958BB38F608BBBDB98CC990BC083
:100360002FEF82E597E0215080409040E1F700C0F8
:10037000000083E60895CD990BC02FEF82E597E04A
:10038000215080409040E1F700C0000080E00895D7
:10039000CE990BC02FEF82E597E02150804090402E
:1003A000E1F700C000008DE30895CF9936CF2FEF1D
:1003B00082E597E0215080409040E1F700C00000C6
:1003C00084E40895CF93DF93CDB7DEB783E087BB96
:1003D00018BA8FEF84BB9FE09ABB8BBBA09AA19AFF
:1003E000A29AA49AA59AA69AA79A80E09AEF019752
:1003F000F1F7AD9AAC9A0E94AD0080E09EE40197BF
:10040000F1F70E94AD0000E011E0C8010197F1F79B
:100410000E94AD00C8010197F1F7AC980E94AD00B1
:10042000C8010197F1F788E20E94DF0088E00E948E
:10043000DF000E940A0186E00E94DF008CE00E943B
:10044000DF0050E6252E50E0352E6EE6462E60E0A9
:10045000562E88EB90E00E94FC0080EC0E94DF00AA
:100460000FE810E00E940D01F80181938F01805D7B
:100470000E94E800F0E003391F07A1F70E940D0178
:100480008D33E1F70E940A0180918F00813009F0DD
:1004900007C180919000823009F002C180919100E3
:1004A000833009F0FDC080919200843009F0F8C0DB
:1004B0008BEA90E00E94FC00C09AC1980E940A0159
:1004C0008AE990E00E94FC0080EC0E94DF000E941C
:1004D0000D0180938E00805D0E94E8000E940D0156
:1004E0008D33E1F780918E006DB67EB624E0829F59
:1004F000C0011124EDB7FEB7E81BF90B0FB6F89455
:10050000FEBF0FBEEDBF2DB73EB72F5F3F4F790146
:10051000E81BF90B0FB6F894FEBF0FBEEDBF2DB769
:100520003EB72F5F3F4F6901912C80918E00981646
:1005300008F473C00E940A018CE890E00E94FC005D
:1005400080EC0E94DF000E940D01082F80E3800FE5
:100550000E94E80001500E940D018D33E1F70E94D6
:100560000A0180E890E00E94FC0080EC0E94DF001D
:1005700010E04801880C991C880C991CB12CA12C06
:100580000E940D01F401EA0DFB1DEC0DFD1D8083A1
:10059000805D0E94E800FFEFAF1ABF0A24E0A216B8
:1005A000B10471F70E940D018D33E1F70E940A0139
:1005B000000F111F000F111FD601A00FB11FF7016F
:1005C000E00FF11F9C918081981363C011969C915C
:1005D0001197818198135DC012969C911297828128
:1005E000981357C013969C918381981352C084E747
:1005F00090E00E94FC00C09AC1980FB6F8947EBEAD
:100600000FBE6DBE3AEA80E499EFE3E031508040DE
:100610009040E040D9F700001CCF092D10E0C80140
:1006200001969F938F933F922F925F924F920E94D9
:1006300057030E940A014EE6A42E40E0B42E0F900C
:100640000F900F900F900F900F90F50181915F0127
:1006500081111CC080EC0E94DF00000F111F000FF1
:10066000111F0E0D1F1D34E0B32E0E940D01F80165
:1006700081938F01805D0E94E800BA94B110F5CF9C
:100680000E940D018D33E1F793944FCF0E94E80053
:10069000DCCF82E690E00E94FC00C19AC098ADCF0A
:1006A00084E590E00E94FC00C19AC098ABCFAEE018
:1006B000B0E0EDE5F3E00C9406060D891E8986E0B6
:1006C0008C831A8309838FEF9FE79E838D83AE010E
:1006D000475E5F4F6F89788DCE0101960E947A0345
:1006E0002F813885020F131FF80110822E96E4E047
:1006F0000C942206ABE0B0E0E0E8F3E00C94F805DF
:100700007C013B018A01FC0117821682838181FFF3
:10071000C8C1CE0101965C01F7019381F30193FDFD
:10072000859193FF81913F01882309F453C185325C
:1007300039F493FD859193FF81913F01853229F42E
:10074000B70190E00E946A05E7CF912C212C312C53
:10075000FFE1F31538F08B3211F190F4803209F19A
:10076000833229F137FC3CC020ED280F2A3050F5A8
:1007700036FE20C08AE0989E200D1124922E06C0DD
:100780008D3291F0803371F7689430F8F30193FD66
:10079000859193FF81913F018111DACF21C0689447
:1007A00031F8689432F8F2CF689433F8EFCF689458
:1007B00034F8ECCFEAE02E9E200D1124222E68940E
:1007C00035F8E4CF8E3229F436FC04C1689436F84B
:1007D000DDCF8C3619F4689437F8D8CF8836B1F26B
:1007E000982F9F7D95549330E0F08336A1F18337A5
:1007F000C1F1833509F063C02801F2E04F0E511CAE
:10080000F801C080D180692D70E036FC02C06FEF26
:100810007FEFC6010E9454054C01689437F88201AD
:100820000AC00C5F1F4FFFE3F98388248394912C47
:100830006501E89437F833FE2DC0522C81149104E1
:1008400071F5552009F468CFB70180E290E00E946D
:100850006A055A94F6CFF801808189830E5F1F4F95
:10086000E4CF2801F2E04F0E511CF801C080D18086
:10087000692D70E036FC02C06FEF7FEFC6010E9469
:100880005F054C018201D5CFB70180E290E00E9464
:100890006A052A942814190409F0B0F7CECFF6019E
:1008A00037FC859137FE81916F01B70190E00E947E
:1008B0006A0551105A94F1E08F1A9108BFCF84361F
:1008C00019F0893609F077C0F80137FE6BC06081F6
:1008D0007181828193810C5F1F4FF32DFF763F2E34
:1008E00097FF09C090958095709561957F4F8F4FC8
:1008F0009F4F689437F82AE030E0A5010E949A05DE
:10090000C82ECA188C2C432C36FE0CC0E89440F834
:10091000C91440F434FE05C032FC03C0F32DFE7E42
:100920004F2E892C44FE95C0FE01EC0DF11D8081F7
:10093000803309F087C0242D297E422E842D8870B3
:10094000582E43FC95C040FE8FC09C2C821418F496
:100950002C0C922C981844FE91C0B70180E390E0D3
:100960000E946A0542FE09C088E790E041FE02C08D
:1009700088E590E0B7010E946A05C91408F48AC0AE
:10098000CA94D12C9FEFC91AD90ACA0CDB1CF601F4
:1009900082916F01B70190E00E946A05AC14BD041A
:1009A000B1F74FCF60817181072E000C880B990B36
:1009B0000E5F1F4F92CFD32CE894D4F82AE030E09A
:1009C000853739F1232D297FD22E8F3601F148F456
:1009D0008835A9F0F701868197812B96E2E10C9486
:1009E0001406803749F08837A9F7D4FE02C068940E
:1009F000D2F820E130E00DC06894D4F8F6CF34FE90
:100A000003C0822F8660D82E20E132E002C028E0A9
:100A100030E0F801D7FE0FC060817181828193813F
:100A20000C5F1F4FA5010E949A05C82ECA183D2CC5
:100A3000E89437F867CF6081718190E080E00E5FC5
:100A40001F4FF0CF42FC02C0839478CF83948394ED
:100A500075CF842D867809F471CFF6CFB70180E287
:100A600090E00E946A0583948214C0F3512C73CFE6
:100A7000522C5818821408F46ECFF8CF842D867843
:100A800009F47BCF8BE241FE80E247FC8DE2B701A7
:100A900090E071CFB70180E390E00E946A059A94DC
:100AA0006CCF8FEF9FEF99CFFC01059061507040A4
:100AB0000110D8F7809590958E0F9F1F0895FC0127
:100AC0006150704001900110D8F7809590958E0F7D
:100AD0009F1F08950F931F93CF93DF93182F092F14
:100AE000EB018B8181FD09C01FEF0FEF812F902F4C
:100AF000DF91CF911F910F91089582FF14C02E8135
:100B00003F818C819D81281739073CF4E881F98168
:100B1000CF0101969983888310838E819F810196EE
:100B20009F838E83E3CFE885F985812F0995892BF3
:100B3000A1F3DACFFA01AA27283051F1203181F14F
:100B4000E8946F936E7F6E5F7F4F8F4F9F4FAF4FD5
:100B5000B1E03ED0B4E03CD0670F781F891F9A1FE8
:100B6000A11D680F791F8A1F911DA11D6A0F711D9C
:100B7000811D911DA11D20D009F468943F912AE0A8
:100B8000269F11243019305D3193DEF6CF01089590
:100B9000462F4770405D4193B3E00FD0C9F7F6CFC1
:100BA000462F4F70405D4A3318F0495D31FD405289
:100BB000419302D0A9F7EACFB4E0A695979587951F
:100BC00077956795BA95C9F70097610571050895FE
:100BD0009B01AC010A2E06945795479537952795AA
:100BE000BA95C9F7620F731F841F951FA01D089542
:100BF0002F923F924F925F926F927F928F929F922D
:100C0000AF92BF92CF92DF92EF92FF920F931F931A
:100C1000CF93DF93CDB7DEB7CA1BDB0B0FB6F894CB
:100C2000DEBF0FBECDBF09942A88398848885F840B
:100C30006E847D848C849B84AA84B984C884DF807C
:100C4000EE80FD800C811B81AA81B981CE0FD11D60
:100C50000FB6F894DEBF0FBECDBFED010895F89436
:020C6000FFCFC4
:0E0C62007573657220256420706173733A000B
:00000001FF
