:0C0000000C943B000C9400000C940000D9
:10000C000C9400000C9400000C9400000C94000064
:10001C000C9400000C9400000C9400000C94000054
:10002C000C9400000C9400000C9400000C94000044
:10003C000C9400000C9400000C9400000C94000034
:10004C000C9400000C94000020204E6567696E2013
:10005C00536F6C74616E6920200080C012006001C7
:10006C0054000200720166000000F894EE27ECBB0D
:10007C00F1E0FBBFEBBFE5BFF8E1F1BDE1BD8DE009
:10008C00A2E0BB27ED938A95E9F780E094E0A0E627
:10009C00ED930197E9F7E8E6F0E0859195910097EB
:1000AC0061F0A591B59105901590BF01F0010590F7
:1000BC000D920197E1F7FB01F0CFEFE5EDBFE4E026
:1000CC00EEBFC0E6D1E00C946B00A0E162D0A0E6DC
:1000DC00B1E04ED0FFCFFFCFAA93EBB3EF70AE2FB2
:1000EC00E881E07FEA2BEBBB81E08A95F1F7DA9AA5
:1000FC0082E08A95F1F7DA9882E08A95F1F771C07F
:10010C00AA93A881E9DFE881E295E883A881E4DF7E
:10011C0081E18A95F1F765C0AA93E881F0E0EE5889
:10012C00FE4FE081A981AE0FEBDF5980488022960B
:10013C000895A2E058D0ACE0E3DFA1E054D0E0E0B9
:10014C004E2E5E2E0895AA93A881AA3011F0571452
:10015C0048F0E0E0EA934394A42DDEDFA881AA30B6
:10016C0009F43FC05394D89AA881CADFD89839C0F3
:10017C00BA93AA931A93A981BA81ED91A983BA83F0
:10018C001E2FE03019F0A12FDEDFF5CF188123965A
:10019C000895AA93EAB3E06FEABBD29AD09AD19AA7
:1001AC00DA98D898D9987880E881E058E09374016F
:1001BC00E881E054E0937501A4E1B0E00E940401F1
:1001CC0017D016D015D0A0E287DF81E28A95F1F71F
:1001DC00A8E296DFA4E094DFA5E892DFA6E090DF2A
:1001EC00A8DF219608958CDFA3E0B0E00C94040105
:1001FC00A0E372DF81E28A95F1F70895109639F049
:10020C008AEF90E00197F1F7A8951197C9F7089537
:00000001FF
