:100000000C9434000C9446000C9446000C9446006A
:100010000C9446000C9446000C9446000C94460048
:100020000C9448000C9446000C9446000C94460036
:100030000C9446000C9446000C9446000C94460028
:100040000C9446000C9446000C9446000C94460018
:100050000C9446006D006F0071007300750077000E
:1000600079007B007D007F0011241FBECFE5D4E026
:10007000DEBFCDBF20E0A0E6B0E001C01D92A236F9
:10008000B207E1F70E948C000C949D000C940000D4
:100090001F920F920FB60F9211248F939F93EF939D
:1000A000FF93809160009091610001968A309105E4
:1000B00029F0909361008093600004C01092610069
:1000C00010926000E0916000F0916100EA30F1056B
:1000D000C8F4E65DFF4F0C9497008FE311C086E0F3
:1000E0000FC08BE50DC08FE40BC086E609C08DE61E
:1000F00007C08DE705C087E003C08FE701C08FE62A
:1001000082BB01C012BAFF91EF919F918F910F9026
:100110000FBE0F901F90189584E089BF82E08EBDBE
:100120008FEF81BB84BB789415BA12BAFFCFEE0F64
:0E013000FF1F0590F491E02D0994F894FFCF85
:00000001FF
