:100000000C944C000C9469000C9469000C946900E9
:100010000C9469000C9469000C9469000C946900BC
:100020000C9469000C9469000C9469000C946900AC
:100030000C9469000C9469000C9469000C9469009C
:100040000C9469000C9469000C9469000C9469008C
:100050000C9469005455524E454420524947485427
:100060002E005455524E4544204C4546542E0041D6
:10007000204249542052494748542E0041204249C9
:1000800054204C4546542E004C696E6520466F6CDA
:100090006C6F772E2E2E000011241FBECFE5D8E006
:1000A000DEBFCDBF10E0A0E6B0E0E2EBF3E002C0BF
:1000B00005900D92A436B107D9F720E0A4E6B0E090
:1000C00001C01D92A636B207E1F70E94F4000C941D
:1000D000D7010C940000A898A99AA498A598A6986E
:1000E000A798AA9A00C09C9B15C080E19D99806248
:1000F0009E9980649F998068AA9800C0AA9A00C0BF
:100100009C9981609D9982609E9984609F99886086
:10011000AA98089580E0EACF0E946B0087FDFCCF8B
:1001200084E090E00197F1F70C946B00AA9A00C06C
:10013000AA980895CF93C82F662341F1A89AA99849
:10014000A49AA59AA69AA79AAF98AE98AD98AC989B
:10015000C7FDAF9AC6FDAE9AC5FDAD9AC4FDAC9A77
:100160000E949600AF98AE98AD98AC98C3FDAF9A38
:10017000C2FDAE9AC1FDAD9AC0FDAC9A0E94960038
:10018000AC9AAD9AAE9AAF9ACF910895A898D7CF6E
:10019000CF93C82F0E948C0060E08C2FCF910C94DD
:1001A0009A000F931F93CF938C01F801C491C11152
:1001B00004C0CF911F910F9108950E948C00CA3006
:1001C00059F4803438F080E080580E94C8000F5FF6
:1001D0001F4FEBCF80E4F8CF61E08C2F0E949A0094
:1001E000F6CF81E00C94C80087B3887F87BB88B3C3
:1001F000876088BB8FEF81BBA09AA19AA29AA49A2C
:10020000A59AA69AA79A80E09DE70197F1F7AD9A83
:10021000AC9A0E94960080E097E20197F1F70E9465
:100220009600C0E8D0E0CE010197F1F70E94960059
:10023000CE010197F1F7AC980E9496002197F1F753
:1002400088E20E94C80088E00E94C8000E94F10075
:1002500086E00E94C8008CE00E94C800B09929C0C6
:10026000B19B75C0B29B73C00E94F10088E890E01A
:100270000E94D100E09164000E2E000CFF0BE05AAA
:10028000FF4F808190E1899F90011124E0916500EA
:100290000E2E000CFF0BE05AFF4F8081822B82BB99
:1002A0002FE788E391E0215080409040E1F700C0C3
:1002B0000000B09B1AC0B19918C00E94F10082E6FC
:1002C00090E00E94D100E09165000E2E000CFF0B23
:1002D000E05AFF4F808182BB2FE788E391E02150F5
:1002E00080409040E1F700C00000B09B1CC0B29974
:1002F0001AC0C09164000E94F10084E590E00E9461
:10030000D100EC2FCC0FFF0BE05AFF4F808182957C
:10031000807F82BB2FE788E391E0215080409040AE
:10032000E1F700C00000909165009F5F9093650029
:10033000809164008F5F80936400943011F4109278
:100340006500843009F08ACF1092640087CFB1999C
:1003500019C0B29B17C00E94F1008CE790E00E9488
:10036000D100E09165000E2E000CFF0BE05AFF4F0C
:10037000808182BB2FE789EA93E021508040904042
:10038000E1F795CFB19B95CFB29993CF0E94F10041
:100390008FE690E00E94D100E09164000E2E000CE8
:1003A000FF0BE05AFF4F80818295807FE2CFF89467
:0203B000FFCF7D
:0403B20003060C0929
:00000001FF
