:100000000C942A000C9447000C9447000C94470071
:100010000C9447000C9447000C9447000C94470044
:100020000C9447000C9447000C9447000C94490032
:100030000C9447000C9447000C9447000C94470024
:100040000C9447000C9447000C9447000C94470014
:100050000C94470011241FBECFE5D8E0DEBFCDBF12
:1000600010E0A0E6B0E0E8EBF1E002C005900D92F0
:10007000AA36B107D9F720E0AAE6B0E001C01D9288
:10008000AB36B207E1F70E94B3000C94DA000C948F
:1000900000001F920F920FB60F9211242F933F93DF
:1000A0004F938F939F93EF93FF9320916A0040911A
:1000B000610080916300909164003091600044235E
:1000C000E1F12F5F24303CF520936A00332331F1B6
:1000D00001979093640080936300889714F41092C2
:1000E0006000E0916A000E2E000CFF0BEB59FF4FF1
:1000F00080818BBB909163008EEF891B82BFFF9143
:10010000EF919F918F914F913F912F910F900FBE43
:100110000F901F90189510926A00D8CF0196909377
:100120006400809363008F3F9105D9F2D4F210925E
:10013000610081E080936000D4CF215027FD11C081
:1001400020936A003111C4CF01969093640080938C
:1001500063008F3F910529F224F281E080936100D2
:10016000E9CF23E0EDCF8FE08ABB1BBAA298AA9A11
:1001700080916300819582BF81E089BF789495E08A
:100180009A9910C02FEF34E38CE02150304080402A
:10019000E1F700C0000081E020916200211180E0C1
:1001A0008093620080916200882311F013BEE8CF33
:0801B00093BFE6CFF894FFCFE6
:0A01B8000101010001090C0603001B
:00000001FF
