:100000000C942A000C9447000C9447000C94470071
:100010000C9447000C9447000C9447000C94470044
:100020000C9447000C9447000C9447000C94490032
:100030000C9447000C9447000C9447000C94470024
:100040000C9447000C9447000C9447000C94470014
:100050000C94470011241FBECFE5D8E0DEBFCDBF12
:1000600010E0A0E6B0E0E4E3F1E002C005900D92FC
:10007000A436B107D9F720E0A4E6B0E001C01D9294
:10008000A636B207E1F70E9479000C9498000C9410
:1000900000001F920F920FB60F9211248F939F931F
:1000A000EF93FF9380916400909165009923E1F0B4
:1000B0008F5F84301CF48093640002C0109264004F
:1000C000E09164000E2E000CFF0BE05AFF4F808180
:1000D0008BBB89ED82BFFF91EF919F918F910F9024
:1000E0000FBE0F901F901895815087FFE4CF83E0DB
:1000F000E2CF8FE08ABB1BBAA298AA9A85E083BFA1
:1001000089ED82BF81E089BF78949A99FECF2FEF65
:1001100084E39CE0215080409040E1F700C0000063
:1001200081E090916500911180E080936500EDCFB2
:04013000F894FFCF71
:04013400090C0603A9
:00000001FF
