:100000000C942A000C943C000C943C000C943C0092
:100010000C943C000C943C000C943C000C943C0070
:100020000C943C000C943C000C943C000C943C0060
:100030000C943C000C943C000C943C000C943C0050
:100040000C943C000C943C000C943C000C943C0040
:100050000C943C0011241FBECFE5D8E0DEBFCDBF1D
:1000600020E0A0E6B0E001C01D92AC36B207E1F797
:100070000E943E000C94C1000C9400008FE08ABBEB
:100080001BBA1BB888E18AB986E880BD83E389B9C9
:1000900010BC03E016E0DCE0C9E080E0E2E6F0E05E
:1000A0005F9BFECF9CB19D3009F443C09A3009F4A8
:1000B00040C0919310828F5F8A3091F782E690E082
:1000C0000E949B00909361008093600090E080E02C
:1000D000209160003091610082179307F0F60BBB0E
:1000E0002FE738E341E0215030404040E1F700C0C5
:1000F00000001BBB2FE738E341E021503040404077
:10010000E1F700C00000DBBB2FE738E341E02150FE
:1001100030404040E1F700C00000CBBB2FE738E3A0
:1001200041E0215030404040E1F700C0000001961E
:10013000CFCF1082C3CFFC0188279927E894219163
:100140002032E9F3293010F02E30C8F32B3241F081
:100150002D3239F4689404C00E94B900820F911DB9
:10016000219120532A30C0F31EF4909581959F4F22
:1001700008957AE0979F902D879F802D910D1124EF
:060180000895F894FFCF82
:00000001FF
