:100000000C942A000C94F9000C94D9000C94BB00B9
:100010000C943F000C943F000C943F000C943F0064
:100020000C943F000C943F000C943F000C943F0054
:100030000C943F000C943F000C943F000C943F0044
:100040000C943F000C943F000C943F000C943F0034
:100050000C943F0011241FBECFE5D8E0DEBFCDBF1A
:1000600010E0A0E6B0E0E0EDFCE002C005900D92EB
:10007000AE37B107D9F70E9419010C9466060C94AB
:100080000000A898A99AA498A598A698A798AA9AB3
:1000900000C09C9B15C080E19D9980629E99806400
:1000A0009F998068AA9800C0AA9A00C09C99816014
:1000B0009D9982609E9984609F998860AA9808950E
:1000C00080E0EACF0E94410087FDFCCF88E090E00D
:1000D0000197F1F70C944100AA9A00C0AA980895DC
:1000E000CF93C82F662341F1A89AA998A49AA59AFC
:1000F000A69AA79AAF98AE98AD98AC98C7FDAF9A5C
:10010000C6FDAE9AC5FDAD9AC4FDAC9A0E946C00C6
:10011000AF98AE98AD98AC98C3FDAF9AC2FDAE9AB9
:10012000C1FDAD9AC0FDAC9A0E946C00AC9AAD9A2C
:10013000AE9AAF9ACF910895A898D7CFCF93C82FF2
:100140000E94620060E08C2FCF910C947000CF93DE
:10015000C82F0E946200CA3049F4803428F080E041
:100160008058CF910C949E0080E4FACF61E08C2FF0
:10017000CF910C9470001F920F920FB60F92112422
:100180002F938F939F932FEF81EE94E02150804027
:100190009040E1F700C00000809161008F5F809384
:1001A00061009F918F912F910F900FBE0F901F9024
:1001B00018951F920F920FB60F9211242F938F93C1
:1001C0009F932FEF81EE94E0215080409040E1F723
:1001D00000C0000080916000882319F08150809356
:1001E00060009F918F912F910F900FBE0F901F90E5
:1001F00018951F920F920FB60F9211242F938F9381
:100200009F932FEF81EE94E0215080409040E1F7E2
:1002100000C0000080916000863918F48F5F8093E1
:1002200060009F918F912F910F900FBE0F901F90A4
:100230001895CF93DF93CDB7DEB760970FB6F894DC
:10024000DEBF0FBECDBF8FEF84BB1ABA81B3837FF1
:1002500081BB82B38C6082BBBA98C29AB89A84EA96
:1002600086B910BEA09AA19AA29AA49AA59AA69A13
:10027000A79A80E09AEF0197F1F7AD9AAC9A0E94A5
:100280006C0080E09EE40197F1F70E946C0000E0B2
:1002900011E0C8010197F1F70E946C00C8010197B5
:1002A000F1F7AC980E946C00C8010197F1F788E261
:1002B0000E949E0088E00E949E0081E00E949E00B5
:1002C00086E00E949E008CE00E949E008BB7806EAC
:1002D0008BBF8AE085BF14BE789480E4582E92E6E6
:1002E000692E90E0792ECE0101967C0120E7C22E86
:1002F00020E0D22E81E00E949E0057B89AE19A95A4
:10030000F1F700C0369A349BFECF349A64B175B1D0
:1003100090E080E00E94930220E030E04AEF53E456
:100320000E94210320E030EC4FE754E40E94EB01EF
:100330000E945D028B017F936F937F926F92FF9279
:10034000EF920E948E0357010F900F900F900F9025
:100350000F900F904701F40181914F0181112CC042
:1003600080EC0E949E00809161001F928F9380918B
:1003700060001F928F93DF92CF92FF92EF920E94C4
:100380008E030FB6F894DEBF0FBECDBFF50181918D
:100390005F01811114C08091600090E08017910787
:1003A0008CF4C09AFFEF20E782E0F15020408040BB
:1003B000E1F700C000009ECF0E94A700CCCF0E94B2
:1003C000A700E4CF20916100821B9109081719074B
:1003D0004CF7C098E7CF0E94FF010C94E7020E94FF
:1003E000E00258F00E94D90240F029F45F3F29F062
:1003F0000C94D00251110C941B030C94D6020E9451
:10040000F80268F39923B1F3552391F3951B550B2B
:10041000BB27AA2762177307840738F09F5F5F4FD7
:10042000220F331F441FAA1FA9F335D00E2E3AF016
:10043000E0E832D091505040E695001CCAF72BD02E
:10044000FE2F29D0660F771F881FBB1F261737077F
:100450004807AB07B0E809F0BB0B802DBF01FF27B1
:1004600093585F4F3AF09E3F510578F00C94D002BC
:100470000C941B035F3FE4F3983ED4F38695779585
:100480006795B795F7959F5FC9F7880F911D96956A
:10049000879597F90895E1E0660F771F881FBB1FC6
:1004A000621773078407BA0720F0621B730B840B73
:1004B000BA0BEE1F88F7E09508950E9464026894D5
:1004C000B1110C941B0308950E94000388F09F57FC
:1004D00098F0B92F9927B751B0F0E1F0660F771F68
:1004E000881F991F1AF0BA95C9F714C0B13091F05E
:1004F0000E941A03B1E008950C941A03672F782F15
:100500008827B85F39F0B93FCCF386957795679522
:10051000B395D9F73EF490958095709561957F4F8E
:100520008F4F9F4F0895E89409C097FB3EF4909534
:100530008095709561957F4F8F4F9F4F9923A9F0BC
:10054000F92F96E9BB279395F6958795779567954B
:10055000B795F111F8CFFAF4BB0F11F460FF1BC08F
:100560006F5F7F4F8F4F9F4F16C0882311F096E922
:1005700011C0772321F09EE8872F762F05C06623D0
:1005800071F096E8862F70E060E02AF09A95660F89
:10059000771F881FDAF7880F9695879597F9089542
:1005A00097F99F6780E870E060E008959FEF80EC26
:1005B000089500240A9416161706180609060895C9
:1005C00000240A9412161306140605060895092E2F
:1005D0000394000C11F4882352F0BB0F40F4BF2B9E
:1005E00011F460FF04C06F5F7F4F8F4F9F4F0895DE
:1005F00057FD9058440F551F59F05F3F71F04795D4
:10060000880F97FB991F61F09F3F79F087950895B8
:10061000121613061406551FF2CF4695F1DF08C0D7
:10062000161617061806991FF1CF869571056105F4
:1006300008940895E894BB2766277727CB0197F99C
:1006400008950E9434030C94E7020E94D90238F006
:100650000E94E00220F0952311F00C94D0020C943B
:10066000D60211240C941B030E94F80270F3959F8C
:10067000C1F3950F50E0551F629FF001729FBB2799
:10068000F00DB11D639FAA27F00DB11DAA1F649F35
:100690006627B00DA11D661F829F2227B00DA11DE8
:1006A000621F739FB00DA11D621F839FA00D611D6E
:1006B000221F749F3327A00D611D231F849F600D8F
:1006C000211D822F762F6A2F11249F5750409AF0B8
:1006D000F1F088234AF0EE0FFF1FBB1F661F771F44
:1006E000881F91505040A9F79E3F510580F00C940F
:1006F000D0020C941B035F3FE4F3983ED4F386953D
:1007000077956795B795F795E7959F5FC1F7FE2BAE
:10071000880F911D9695879597F90895AEE0B0E002
:10072000E4E9F3E00C943D060D891E8986E08C8394
:100730001A8309838FEF9FE79E838D83AE01475E07
:100740005F4F6F89788DCE0101960E94B1032F8192
:100750003885020F131FF80110822E96E4E00C94E6
:100760005906ABE0B0E0E7EBF3E00C942F067C0118
:100770003B018A01FC0117821682838181FFC8C177
:10078000CE0101965C01F7019381F30193FD859100
:1007900093FF81913F01882309F453C1853239F4D5
:1007A00093FD859193FF81913F01853229F4B70133
:1007B00090E00E94A105E7CF912C212C312CFFE184
:1007C000F31538F08B3211F190F4803209F1833255
:1007D00029F137FC3CC020ED280F2A3050F536FEB9
:1007E00020C08AE0989E200D1124922E06C08D32E2
:1007F00091F0803371F7689430F8F30193FD85919F
:1008000093FF81913F018111DACF21C0689431F8C3
:10081000689432F8F2CF689433F8EFCF689434F8E4
:10082000ECCFEAE02E9E200D1124222E689435F89C
:10083000E4CF8E3229F436FC04C1689436F8DDCF5B
:100840008C3619F4689437F8D8CF8836B1F2982FDF
:100850009F7D95549330E0F08336A1F18337C1F149
:10086000833509F063C02801F2E04F0E511CF801F6
:10087000C080D180692D70E036FC02C06FEF7FEF41
:10088000C6010E948B054C01689437F882010AC0AA
:100890000C5F1F4FFFE3F98388248394912C65013B
:1008A000E89437F833FE2DC0522C8114910471F571
:1008B000552009F468CFB70180E290E00E94A105BD
:1008C0005A94F6CFF801808189830E5F1F4FE4CFE1
:1008D0002801F2E04F0E511CF801C080D180692D33
:1008E00070E036FC02C06FEF7FEFC6010E949605F4
:1008F0004C018201D5CFB70180E290E00E94A105B2
:100900002A942814190409F0B0F7CECFF60137FC69
:10091000859137FE81916F01B70190E00E94A1059A
:1009200051105A94F1E08F1A9108BFCF843619F014
:10093000893609F077C0F80137FE6BC0608171819C
:10094000828193810C5F1F4FF32DFF763F2E97FF1F
:1009500009C090958095709561957F4F8F4F9F4FFF
:10096000689437F82AE030E0A5010E94D105C82E2E
:10097000CA188C2C432C36FE0CC0E89440F8C914DD
:1009800040F434FE05C032FC03C0F32DFE7E4F2E32
:10099000892C44FE95C0FE01EC0DF11D8081803351
:1009A00009F087C0242D297E422E842D8870582E70
:1009B00043FC95C040FE8FC09C2C821418F42C0C74
:1009C000922C981844FE91C0B70180E390E00E94F9
:1009D000A10542FE09C088E790E041FE02C088E51B
:1009E00090E0B7010E94A105C91408F48AC0CA9416
:1009F000D12C9FEFC91AD90ACA0CDB1CF6018291CF
:100A00006F01B70190E00E94A105AC14BD04B1F7DD
:100A10004FCF60817181072E000C880B990B0E5F00
:100A20001F4F92CFD32CE894D4F82AE030E08537DA
:100A300039F1232D297FD22E8F3601F148F48835E4
:100A4000A9F0F701868197812B96E2E10C944B0681
:100A5000803749F08837A9F7D4FE02C06894D2F8ED
:100A600020E130E00DC06894D4F8F6CF34FE03C026
:100A7000822F8660D82E20E132E002C028E030E0EC
:100A8000F801D7FE0FC060817181828193810C5F74
:100A90001F4FA5010E94D105C82ECA183D2CE8940D
:100AA00037F867CF6081718190E080E00E5F1F4F63
:100AB000F0CF42FC02C0839478CF8394839475CFA7
:100AC000842D867809F471CFF6CFB70180E290E0EB
:100AD0000E94A10583948214C0F3512C73CF522C31
:100AE0005818821408F46ECFF8CF842D867809F454
:100AF0007BCF8BE241FE80E247FC8DE2B70190E0C4
:100B000071CFB70180E390E00E94A1059A946CCF69
:100B10008FEF9FEF99CFFC0105906150704001105D
:100B2000D8F7809590958E0F9F1F0895FC01615016
:100B3000704001900110D8F7809590958E0F9F1FFF
:100B400008950F931F93CF93DF93182F092FEB0175
:100B50008B8181FD09C01FEF0FEF812F902FDF9157
:100B6000CF911F910F91089582FF14C02E813F8174
:100B70008C819D81281739073CF4E881F981CF01E8
:100B800001969983888310838E819F8101969F832C
:100B90008E83E3CFE885F985812F0995892BA1F311
:100BA000DACFFA01AA27283051F1203181F1E894F7
:100BB0006F936E7F6E5F7F4F8F4F9F4FAF4FB1E050
:100BC0003ED0B4E03CD0670F781F891F9A1FA11D4B
:100BD000680F791F8A1F911DA11D6A0F711D811D4C
:100BE000911DA11D20D009F468943F912AE0269F11
:100BF00011243019305D3193DEF6CF010895462F70
:100C00004770405D4193B3E00FD0C9F7F6CF462F50
:100C10004F70405D4A3318F0495D31FD40524193B9
:100C200002D0A9F7EACFB4E0A69597958795779576
:100C30006795BA95C9F700976105710508959B01FD
:100C4000AC010A2E06945795479537952795BA9586
:100C5000C9F7620F731F841F951FA01D08952F925F
:100C60003F924F925F926F927F928F929F92AF923C
:100C7000BF92CF92DF92EF92FF920F931F93CF9389
:100C8000DF93CDB7DEB7CA1BDB0B0FB6F894DEBF20
:100C90000FBECDBF09942A88398848885F846E8446
:100CA0007D848C849B84AA84B984C884DF80EE8090
:100CB000FD800C811B81AA81B981CE0FD11D0FB699
:100CC000F894DEBF0FBECDBFED010895F894FFCFBD
:100CD000230154656D702069733D202564276300EE
:0E0CE00074723D256420202068793D25640053
:00000001FF
