:100000000C942A000C9447000C9447000C94470071
:100010000C9447000C9447000C9447000C94470044
:100020000C9447000C9447000C9447000C94490032
:100030000C9447000C9447000C9447000C94470024
:100040000C9447000C9447000C9447000C94470014
:100050000C94470011241FBECFE5D8E0DEBFCDBF12
:1000600010E0A0E6B0E0EEEFF0E002C005900D92E7
:10007000A436B107D9F720E0A4E6B0E001C01D9294
:10008000A536B207E1F70E946E000C947D000C9437
:1000900000001F920F920FB60F9211248F93EF93CF
:1000A000FF93809164008F5F8430ACF48093640090
:1000B000E09164000E2E000CFF0BE05AFF4F808190
:1000C0008BBB89ED82BFFF91EF918F910F900FBE97
:1000D0000F901F90189510926400EACF8FE08ABBB2
:1000E0001BBAA298AA9A789425E099ED81E09A9992
:0E00F000FECF23BF92BF89BFFACFF894FFCF97
:0400FE00090C0603E0
:00000001FF
